:020000041000EA
:1000000000B5324B212058609868022188439860DF
:10001000D860186158612E4B002199600221596106
:100020000121F02299502B49196001219960352056
:1000300000F044F80222904214D00621196600F024
:1000400034F8196E01211966002018661A6600F04E
:100050002CF8196E196E196E052000F02FF8012189
:100060000842F9D1002199601B49196000215960AB
:100070001A491B48016001219960EB211966A021F2
:10008000196600F012F800219960164914480160C1
:100090000121996001BC002800D000471248134993
:1000A000086003C880F30888084703B5996A0420EC
:1000B0000142FBD001200142F8D103BD02B5186610
:1000C0001866FFF7F2FF186E186E02BD00000240BE
:1000D000000000180000070000035F00212200005C
:1000E000F4000018222000A00001001008ED00E03C
:1000F00000000000000000000000000074B24E7A12
:1001000000200420F7010010C3010010C5010010F9
:10011000C1010010C1010010C1010010C101001097
:10012000C1010010C1010010C1010010C701001081
:10013000C1010010C1010010C9010010CB01001065
:10014000CD010010CD010010CD010010CD01001037
:10015000CD010010CD010010CD010010CD01001027
:10016000CD010010CD010010CD010010CD01001017
:10017000CD010010CD010010CD010010CD01001007
:10018000CD010010CD010010CD010010CD010010F7
:10019000CD010010CD010010CD010010CD010010E7
:1001A000CD010010CD010010CD010010CD010010D7
:1001B000CD010010CD010010CD010010CD010010C7
:1001C00000BE00BE00BE00BE00BE00BEEFF3058054
:1001D000103800BEF2EB8871DC7E0410FC7E041047
:1001E0003402001090A31AE700201F49086006C8D7
:1001F00081F3088810471D48006800282FD10DA4FE
:100200000ECC002902D000F012F8F9E71849194A7B
:10021000002000E001C19142FCD1174988471749ED
:1002200088471749884700BEFDE701C901C29A42C5
:10023000FBD37047FC7E0410C00000206C17002028
:10024000A89504100000042000000420A8950410C4
:10025000001004200010042000000000704709482E
:1002600003F0CCFB0047000008ED00E0000000D0E8
:1002700070170020903202206D2700109D0300109F
:10028000292700105756000006005250ABB36053A8
:100290009CE5001006005250861C0302ACE50010DD
:1002A000060052505422A29DC8E50010050052508D
:1002B000DE65F468A8950410F8B5C04610B5064C84
:1002C0002378002B07D1054B002B02D0044800E017
:1002D00000BF0123237010BDC818002000000000DB
:1002E000A8D40010044B10B5002B03D003490448D8
:1002F00000E000BF10BDC04600000000CC18002088
:10030000A8D4001070B582B008F08EFF002822D16A
:10031000002601960121002008F052FF01230193DD
:100320000F4D0023002201A9286807F053FCFA248E
:100330006400200008F03AFA0021002008F040FF95
:10034000019628680023002201A907F043FC200041
:1003500008F02CFADCE7034804F052F902B070BD53
:10036000F8310220A8D4001000B583B002E008489C
:1003700004F016F90122074B1868524201A907F050
:100380008FFD019B012BF2D0034804F009F9F1E73E
:10039000BCD40010F8310220CCD4001070B582B06B
:1003A00004F03AF900220421012007F0CBFB0C4BAA
:1003B0001860802464000026019601250095002322
:1003C00022000849084807F0F7FF0196009500232E
:1003D00022000649064807F0EFFF08F035F8FEE76F
:1003E000F8310220E0D4001005030010ECD4001016
:1003F0006903001010B58300084A944663441C68E2
:1004000040226240C02414408022520113431C60E9
:10041000C000034B9C466044416010BD04C00140D5
:100420000040014080000B4B9C46604400290DD0E9
:100430000823002A0CD004221343026853400C22E4
:100440001340802252011043036070470023F0E7FD
:100450000022F1E704C00140002909D08000094BC7
:100460009C46604480239B0118430223036070472D
:100470008000044B9C466044C0239B011843022328
:100480000360F4E704C0014070B5D0231B061B686D
:100490009D00094C2C59204207D19B002043064C5B
:1004A00018510D2000F0F2F970BD044B044ACC2124
:1004B000044802F03DF9C046082F0020F8D400108F
:1004C000ACD5001024D5001010B50400D0231B06B5
:1004D0001B689B000A4A9B5818420BD00D2000F065
:1004E000EFFAD0231B061B6805499B005A58A2430C
:1004F0005A5010BD034B044AD621044802F018F9A3
:10050000082F00205CD5001088D5001024D50010DD
:10051000072303409B00C00899403C308000014BFA
:10052000C150704700400140F8B507000C001600AC
:100530001D00FFF7EDFFFB089B00ED18072038407A
:1005400080008440002E04D080239B011D432C603A
:10055000F8BDC0239B011D432C60F9E710B5D023E3
:100560001B061B68002B03D0024BFFF7DDFF10BDFD
:10057000014BFAE7304101400041014010B5012331
:100580008340D0221206936293610521FFF732FF68
:1005900010BD0000034B1B6802201840431E984109
:1005A000C0B2704700C00640EFF3108072B6034B34
:1005B0001B68002BFBD0BFF35F8F70472C0100D06E
:1005C000BFF35F8F024B00221A6080F310887047E0
:1005D0002C0100D0F8B506000C001500FFF7E4FF71
:1005E000E308F718F15C07222240012393400B42F5
:1005F00005D1DBB20B433B70FFF7E2FFF8BD2100F2
:10060000280002F02FF9F0B583B006000191140024
:100610001F00FFF7C9FF00E00134BC420CD8E3081B
:10062000F518F35C0721214001228A401A42F3D1D8
:10063000D2B21A432A7001E001246442FFF7C0FFDE
:10064000002C02DB200003B0F0BD019B002BF9D091
:10065000089802F007F9000070B505000C00FFF7DC
:10066000A3FFE308EE18EA5C07210C400123A34036
:10067000134204D09A433270FFF7A2FF70BD034BC0
:10068000034A2C31034802F053F8C046E0D500106D
:1006900038D6001000D60010002307E0054A9A184B
:1006A0009200BFF35F8F0021116001331F2BF5D93A
:1006B0007047C04640000034054A1078431CDBB246
:1006C0001370172B02D9130010221A707047C046FE
:1006D000F80D002000B583B00100044B00931F23E8
:1006E00018220348FFF78FFF03B000BD48D6001063
:1006F000A81E0020074B9B68103080001950BFF3E4
:100700005F8FBFF35F8F044B0021196082F3108865
:100710007047C04600ED00E0240100D01F23181AE6
:100720007047000010B5091A081F0A4B9C46614427
:10073000094A914208D8C30706D440104005400D2D
:10074000064B184380B210BD054B064AA32106484C
:1007500001F0EEFFFC070000FE0F000000E0FFFFCD
:1007600064D60010C8D8001094D6001010B5091A2D
:1007700004394C08090B08D14905490D064A1143B3
:100780000180064B2343438010BD054B054AAB2136
:10079000054801F0CDFFC04600F0FFFF00F8FFFF65
:1007A000C8D600109CD8001094D6001001238340B6
:1007B000034A10681840431E9841C0B27047C046B3
:1007C00000E100E0002904D0034B1860034B1860DF
:1007D0007047034B1860FBE780E200E000E100E0B7
:1007E00080E100E010B5012383401800FFF7EAFF25
:1007F00010BD000001238340014A13607047C046CA
:1008000000E200E0024B9B6810308000C058704747
:1008100000ED00E010B5FFF7F5FF002805D0054B0F
:10082000C01A2F2803D8012010BD0020FCE70020AB
:10083000FAE7C046FC0D002070B504000D00EFF390
:10084000108672B60C4B1B68002BFBD0BFF35F8F7A
:100850002000FFF7D7FF094B984201D0A84205D1ED
:10086000320029002000FFF745FF70BD044B054A08
:100870008621054801F05CFF240100D0CD01001065
:10088000D8D60010FCD8001094D60010F0B5DE4683
:1008900057464E464546E0B589B081460191150060
:1008A000EFF3108A72B6744B1B68002BFBD0BFF3BA
:1008B0005F8F724B0027DF57002F40DB7C00E4196D
:1008C000A4006F4824180622A2566C4B1A706D4B78
:1008D0009A684B4610339B00D35898461E001B1A4B
:1008E0002F2B38D9684B98452FD105AE674B3380F5
:1008F0007B009B46D8198000614B984640440230EB
:100900006349FFF70FFF7080624BB380FF23B37121
:10091000F571019B07935F44BF0047440ECE0EC79D
:1009200001231C43A046524641464846FFF7E2FEDB
:1009300009B0F0BCBB46B246A946A046F0BD564B36
:10094000564AD721564801F0F3FE564B534ADE2152
:10095000534801F0EDFEC04340440C2103F0A2F8DF
:10096000002912D101239E43B34633000026DA79D1
:10097000AA4211D90621595600290CDB4A00521807
:1009800092001E003E4B9B18F1E7474B434AEA2179
:10099000434801F0CDFE1E00002E3AD005AB434A7D
:1009A0001A80813A5A800623F3560293002B17DAF5
:1009B0003F4805AB9B469880029A9A71DD71019A77
:1009C0000792301D2100FFF7ADFEB080B7717B00AC
:1009D000DB199B002A4FFF185B4607CB07C7A2E72E
:1009E0007800C0198000264BC0180430321DB3882F
:1009F000D90A1C2907D15B05591502314900511844
:100A0000FFF790FED5E72B4B2B4AB121244801F08C
:100A10008FFE05AE1D4B33807B000293D8198000FA
:100A2000174A9046020042440392901C1849FFF76F
:100A300079FE7080039A101D5946FFF773FEB0804F
:100A40001E4B5A464146521A524153431B0DB37135
:100A5000F571019A0792029B9C466744BF00474488
:100A60000ECE0EC7114B5A461380813B5380012393
:100A70001C43A04657E7C046240100D0893202201B
:100A8000FC0D002000ED00E0CD01001000A1FFFFF3
:100A90002C0E002001BDFFFF10D70010E4D800107D
:100AA00094D6001038D7001060D70010014800001D
:100AB00001BD0000D4D70010D4D80010AAAA0000AD
:100AC000F0B5CE46474680B583B006000D00EFF383
:100AD000108872B6564B1B68002BFBD0BFF35F8F9C
:100AE000544B9A6834001034A300D758524B9F429D
:100AF00007D0AF4200D198E00197504BFB1A2F2B43
:100B000009D9424639003000FFF7F4FD03B0C0BCFC
:100B1000B946B046F0BD3000FFF748FE81460021DF
:100B20003000FFF75FFEBFF35F8FEFF30581002911
:100B300001D08C4211D10123019C9C430022A36867
:100B4000AB4212D00622A256002A0DDB53009B189E
:100B50009B002200394CE418F1E73621384B394A22
:100B6000FF31394801F0E4FD2200AB4256D10625A1
:100B70006557002D38DB6B005B199A002F4B9B18D3
:100B80009A68A260DA79E27106229A56A2719B797C
:100B90005BB2002B0FDA2D48A0806B005B199B0025
:100BA000264AD3182A4A117899711570494630009F
:100BB000FFF718FEA5E7201D6B005B199B001F4A7D
:100BC0009B181A1D9B88D90A1C2907D15B055B1548
:100BD000023359005118FFF7A5FDDDE71D4B1E4AF2
:100BE000B121194801F0A4FD002912D1002A0ED02C
:100BF000FF239371194B9380154A1378A371184BF7
:100C00000E49641A644163431B0D1370CEE70A4F0B
:100C1000F2E7201D1349FFF7A9FDC7E76A21124B30
:100C2000084AFF31084801F083FD034F69E7C046D9
:100C3000240100D000ED00E0CD010010FC0D0020EB
:100C4000ECD70010B4D8001094D6001001BD0000FD
:100C500089320220D4D70010D4D8001001BDFFFF84
:100C6000AAAA0000360E002020D8001010B50323D9
:100C700004009C43064A9446644422681840C0001D
:100C8000FC3383409A43130081400B43236010BD23
:100C900000E400E070B5012101432E4BCB1A2F2B4D
:100CA00028D8EFF30583002B2BD0EFF3108C72B60E
:100CB000294A1268002AFBD0BFF35F8F274A04003D
:100CC000244D641B64416243120D54B2244A92685D
:100CD0009B00D2588A421BD00022032A32D85300EC
:100CE0009B189B001B49CB189B795BB2A3421FD07A
:100CF0000132F2E7C7211B4B1B4A49001B4801F098
:100D000017FD92211A4B184AFF31184801F010FDC7
:100D1000134A92681749D150174B1A7882711C7088
:100D2000BFF35F8F0C4B00221A608CF3108870BDEC
:100D30000D005300991889006918FF268E710F4A1B
:100D40008A80E9E7D1210E4B074A4900074801F0A4
:100D5000EFFCC046FC0D0020240100D0AAAA000030
:100D600000ED00E028D8001080D8001094D60010C4
:100D700050D80010CD0100108932022001BDFFFFC4
:100D80005CD800100022044B02E0044902C3013287
:100D9000072AFAD97047C04600E400E080808080CE
:100DA00010B5FFF7BBFC01000148FFF755FC10BD73
:100DB0008E32022000B583B00100064B009305235C
:100DC00000220548FFF71FFC002801DB1F23181A2B
:100DD00003B000BD64D800108E32022070B504004C
:100DE0000E001500FFF768FC0100200000F006F877
:100DF000A680E580BFF35F8F70BD0000024B9C466C
:100E000061448900016070474000003410B504005F
:100E1000FFF752FC01002000FFF7F0FF01235B42C7
:100E20006360BFF35F8F10BD10B50400FFF744FC93
:100E300001002000FFF7E2FF01235B426360002313
:100E40002372BFF35F8F10BD034B9C466144890042
:100E50000160BFF35F8F70474000003410B504009D
:100E60000120FFF737FC01002000FFF7EDFF10BD68
:100E700070B505000C00080000F09AFF0949200039
:100E800000F0DAFEFFF718FC074B9C466044800038
:100E900068602C75D0231B061B786B75A400034B70
:100EA000E55070BDAD11001040000034582C0020FA
:100EB00010B5084B1A68EFF3108172B61368002B57
:100EC000FCD0BFF35F8F034806F068FA00200021D2
:100ED00010BDC0461C31002010B5002922D0036887
:100EE0001B7B99421ED8174B9C46614409018368BD
:100EF0009C4661440C684968002A19D003681B7B32
:100F00009A4215D883680F488446624412019A18A1
:100F100010685368020001208B4201D80ED00020D7
:100F2000C0B210BD084B094A3C21094801F000FC41
:100F3000054B064A3C21064801F0FAFBA242EFD8D5
:100F4000EDE7C046FFFFFF0FC8DA001048DD0010D4
:100F500098DA001010B500291ED0037B99421BD8E7
:100F60004B005B18033B0468A4466344002919D076
:100F7000002A1DD0914221D0002A25D0047BA24214
:100F800022D804685000801803382018817019781E
:100F900000291FD11A7010BD104B114A6821114849
:100FA00001F0C6FB104B114A6F310E4801F0C0FB37
:100FB0000F4B0E4A70210B4801F0BAFB0D4B0B4A48
:100FC0007121084801F0B4FB044B054A682105482B
:100FD00001F0AEFB41701A70DDE7C046ECDA00109C
:100FE000C8DD001008DB001048DB0010A4DD001095
:100FF00054DB001060DB001070B506000D0014001B
:10100000002914D0002A14D08068736898470028FB
:1010100006D0220029003000FFF79CFF280007E0DF
:101020002A0021003000FFF795FF200000E01000AB
:1010300070BD0800FCE70000F0B583B00500009229
:1010400001930AAB1C780BAB1F78002C26D00368E9
:101050005A7B944207D10123002B19D1002C3BD19C
:10106000200003B0F0BD002C0CD01A7B944209D8AC
:101070001A6863001B19033BD3189B78002BEBD035
:101080000123E9E73E4B3F4A68213F4801F050FB0E
:101090003E4B3F4A67213F4801F04AFB03689C7B77
:1010A000002CDBD012D01A7B94420FD862001219A8
:1010B000033A19688C46624451789973002900D12B
:1010C000D9730023937053701370C7E72C4B2D4ACC
:1010D00068212D4801F02CFB002C3AD02B681B7B9B
:1010E0009C4236D82C4BE3181B01AA6894466344F3
:1010F000009A1A60019A5A60089A9A60099ADA600E
:101100002E68002C2BD030D0337B9C422DD863002E
:101110001B19033B32689446634400229A705A704C
:101120001A70717B22003000FFF766FF70738442F3
:1011300000D095E7287D009A019B00F0C5FD061EB2
:1011400001D0002F17D00C9B002B00D188E71E7018
:1011500086E7124B124A3C210E4801F0E9FA114B86
:10116000114AA521084801F0E3FA054B054A682118
:10117000054801F0DDFA2868210001F01BF8E2E7DC
:10118000ECDA0010C8DD001008DB001078DB00107E
:10119000D4DD001098DA0010FFFFFF0FC8DA00104E
:1011A00048DD001094DA0010B8DD0010F0B5DE461E
:1011B00057464E464546E0B58BB00990002308934C
:1011C0008200B54BD658370052E0B44BB44A3F21A9
:1011D000B44801F0ADFAB44BB44A3C21B44801F034
:1011E000A7FA002901D1002869D10021404600F06A
:1011F000D7FFA04219D12A686B6806920793AB68A3
:101200009846EB689A464346002B14D0002C18D021
:101210003B681B7B9C4214D8631EFA68D35C08931E
:101220001B0218433861002015E0A24BA24A8E2110
:101230009F4801F07DFAA14B9F4A92219C4801F002
:1012400077FA994B9E4A4121994801F071FA00239F
:101250009A46984600207B68BFF35F8F00221A6091
:1012600086F310884346002B32D1002800D10CE1D0
:1012700000F0C2FC02000B1EA7DB0020002106903C
:1012800007917868EFF3108672B601680029FCD0E8
:10129000BFF35F8F396888464C7B002CD7D09AD03B
:1012A000097B8C4297D8874965182D01B9688C460F
:1012B000654428686968801A9941002991DD2A6887
:1012C0006B68099800F000FD00239A469846C2E733
:1012D000089B1B022343994651461800C04705004E
:1012E0000E007A68EFF3108B72B6136859424B41C7
:1012F000D9B2002BF9D1BFF35F8F002E1EDB002E79
:1013000046DD3B69002B47D04B456DD100F074FCA6
:1013100002000B1E6EDB52197341002B70DB002B99
:1013200072DB002104910131039102945146019135
:10133000414600913800FFF77FFE4CE03B69002BEF
:10134000DDD04B4514D1069A079B521BB341002BAD
:1013500014DB002B16DB0021049101310391029470
:1013600051460191414600913800FFF765FE32E099
:10137000554B514AA1214E4801F0DAF9012252425F
:10138000524BE6E7454B464A3F21464801F0D0F92B
:10139000002E01D1002DB4D13B68002C50D05A7BD7
:1013A000944237D1012100294AD1DA7B002A4DD15C
:1013B0009A7B002A03D1DA7B002A5AD19C73DC7312
:1013C000002C5CD03B681B7B9C4258D8FA68013CDF
:1013D000135D0133135500233B617A68BFF35F8FC0
:1013E00013608BF3108843E7374B334AA42130480E
:1013F00001F09EF9294B2A4A3F212A4801F098F929
:1014000001225242314B8AE7244B254A3F2125488D
:1014100001F08EF9002C0DD01A7B94420AD862009C
:101420001219033A1868844662449278002ABAD0A6
:101430000121B8E7264B274A6821274801F078F9AF
:10144000264B274AF621244801F072F9002A0AD0D7
:10145000197B8A4207D851008A18033A19688C46CA
:1014600062445470A4E71A4B1A4A68211A4801F0E2
:101470005FF91C4B1A4AFB21174801F059F90A4B36
:101480000F4A41210A4801F053F90BB0F0BCBB46AA
:10149000B246A946A046F0BD582C002064D90010E1
:1014A00014DD001080D90010C8DA001048DD0010EB
:1014B00098DA0010A0DB00102CDD0010B8DB001063
:1014C00080DD0010FFFFFF0FC4DB0010FFFFFF7F78
:1014D000ECDA0010C8DD001008DB001000DC0010A2
:1014E00094DD001024DC001010B50C4B5B68002B61
:1014F00004D00A210A48FFF781FC10BD074C2300E5
:10150000084A1021206800F03DFD032000F050FB48
:1015100003212000FFF7ACFCEBE7C046440E00209F
:101520001C310020D90E001010B5064B5B68002B53
:1015300001D0044810BD044B044A5E21044801F068
:10154000F7F8C046440E002038DC001068DD0010BB
:1015500098DA001070B50500182002F09DFE040016
:1015600002000C49280000F014FD20601021280022
:1015700002F0B0FEA0600121280002F0ABFEE060A6
:10158000012000F029FB01002000FFF771FC200082
:1015900070BDC046D90E001010B50400164B98421D
:1015A0001DD0037D9900154A8A5882421DD19B00A7
:1015B000124A00219950006800F001FD207D0021B1
:1015C00000F03AFB207D00F0FFFAE06802F0A2FE96
:1015D000A06802F09FFE200002F09CFE10BD084BA8
:1015E000084AD321084801F0A3F8084B054AD7213F
:1015F000054801F09DF8C046440E0020582C0020FC
:1016000020D8001054DD001098DA00105CDC0010C7
:10161000F0B5DE4657464E464546E0B58BB08046AF
:1016200016001F00149B9A46159B994616AB1B7813
:101630009B461F2302AA9446634400221A702BE0A3
:10164000002809D042461268127B904204D8421EFC
:101650004146C9688A5C41E0404B414A41214148CA
:1016600001F066F807984CE0361BAF41002F07DB0E
:10167000002F11DA3C4B3D4A3F213D4801F058F81C
:10168000012676423B4FF3E7374B384A3F21384833
:1016900001F04EF8002F4FDB43465A68EFF31084F9
:1016A00072B6136859424B41D9B20791002BF8D159
:1016B000BFF35F8F1F3302AA944663440493002351
:1016C000039302934B4601935346009332003B0031
:1016D0004046FFF7B1FC031EB2D102004146496803
:1016E000BFF35F8F00250D6084F31088002B29D095
:1016F0001F2302A98C4663441B78002BB2D112022F
:101700001043002B20D05B46002B1DD04946D0470C
:1017100004000D0003000B431DD00029A4DB00F0E2
:101720006BFA06000F1EAFDB36196F41002FB1DADE
:10173000012676420F4FADE70B4B0C4A3F210C4878
:1017400000F0F6FF012040420BB0F0BCBB46B246B1
:10175000A946A046F0BD0798F6E7C046C8DA0010D3
:1017600080DD001098DA001064D9001014DD00103C
:1017700080D90010FFFFFF7FF0B589B005001F2161
:101780006944002008706868EFF3108772B601683A
:101790000029FCD0BFF35F8F1F2169440491012110
:1017A0000391002102910F9901910E990091280057
:1017B000FFF742FC0400031E12D106006A68BFF363
:1017C0005F8F0021116087F31088002B1CD01F232E
:1017D0006B441B78002B13D13002204309B0F0BDBD
:1017E000002807D02A68127B904203D8421EE9687D
:1017F0008E5CE3E7064B074A4121074800F098FF5B
:10180000287D00F0F5FAE7E701204042E6E7C04610
:10181000C8DA001080DD001098DA0010F8B5040076
:10182000002900D162E04268EFF3108572B61368B8
:1018300058424341D8B2002BF9D1BFF35F8FCBB2EE
:101840002268567BB3421BD10120002848D0206972
:1018500088422BD0090AC9B2002B2ED02068007B09
:1018600083422AD8581EE668305C88422BD000207C
:101870006368BFF35F8F00221A6085F31088F8BD9C
:10188000002B0DD0167BB3420AD85E00F618033E3B
:101890001768BC466644B678002ED6D00120D4E73F
:1018A000134B144A6821144800F042FF2C21134BBB
:1018B000134AFF31134800F03BFF134B134A4121F9
:1018C000104800F035FF1900100000F073FC0028EC
:1018D000CED199210E4B0A4A49000A4800F028FF50
:1018E00023698B42C4D100232361C1E70020C6E7EE
:1018F000ECDA0010C8DD001008DB001084DC0010FA
:10190000FCDC001098DA0010C8DA001080DD00104E
:10191000A8DC0010407D7047F0B587B006000F00CE
:10192000EFF30583002B1FD196246442E517A41919
:101930007D418D4202D803D1844201D90024002583
:10194000002D14DB0494059500F056F902000B1EDF
:1019500013DBA41A9D41002D17DC14D03000390090
:1019600000F056F907B0F0BD204800F07BFF204B97
:10197000204A3F21204800F0DBFE1D4B1D4A3F213D
:101980001D4800F0D5FE002CE8D0FFF7CDFD002368
:1019900002930193194B0093049A059BFFF738FEBD
:1019A000002812DADAE7002300E00023002BD5D16B
:1019B000134B1A68EFF3108172B61368002BFCD03A
:1019C000BFF35F8F0E4805F085FC0499059A0D4B17
:1019D0005B6A9A42E9D80B48806A884203D29A42ED
:1019E000E1D00123E2E70123E0E7C046ACDC0010D0
:1019F00064D9001014DD001080D90010B10E001061
:101A00001C3100200040054070B504000D0000F0BE
:101A1000F3F802000B1E0ADB200029008018594150
:101A200000290ADB00290CDBFFF776FF70BD084BAD
:101A3000084A3F21084800F07BFE01204042074948
:101A4000F0E7034B034A3F21034800F071FEC04614
:101A500064D9001014DD001080D90010FFFFFF7F53
:101A600010B5FA2292000023002102F0B1FBFFF72B
:101A7000CBFF10BD70B584B005000C00EFF30583FB
:101A8000002B1ED1FFF750FD002302930193224B40
:101A900000932A002300FFF7BBFD061E23DD20BFB5
:101AA000FFF742FD3100FFF7B9FE1C4B5B6A9C4219
:101AB0002DD81A4A926AAA422CD29C4225D00120E3
:101AC00026E0164B5B6A994209D8144A926A824210
:101AD00007D2994201D001201AE0002018E000202E
:101AE00016E0012014E00D4B5B6A9C4209D80B4ABA
:101AF000926AAA4207D29C4201D0012008E000204D
:101B000006E0002004E0012002E0002000E00020C8
:101B100004B070BD0120FBE7B10E0010004005408D
:101B200070B5EFF305801038EFF3108C72B61A4BD6
:101B30001B68002BFBD0BFF35F8F01221300834093
:101B400016494B6316490B60164909780C00C440CE
:101B5000224214D0114A546A8200134D52599442C1
:101B600006D38200114C125999430E4B197007E0AD
:101B70000A4A031D9B0099589950002200E0002258
:101B8000BFF35F8F044B002119608CF31088002A8B
:101B900000D0904770BDC046280100D000400540ED
:101BA0003C7005408D32022028310020681D002045
:101BB00010B50100024A0348FEF70CFD10BDC046F7
:101BC000F8DD00108732022010B501000148FEF751
:101BD00043FD10BD8732022000B583B00100044BE5
:101BE0000093032300220348FEF70DFD03B000BD60
:101BF0001CDE001087320220044B5B6A034A906AA5
:101C00001900536A9942F9D17047C0460040054017
:101C1000084B5B6A01E0074B5B6A8B42FBD301E038
:101C2000044B5B6A8B4203D1024B9B6A8342F7D31E
:101C30007047C0460040054070B504000D00EFF34A
:101C4000108672B61B4B1B68002BFBD0BFF35F8F57
:101C5000002D1CD02000FEF7D5FD174B83420BD082
:101C600019002000FEF7E8FD01212000FEF7BAFD73
:101C70000123A340114A1360A400114BE550BFF3A8
:101C80005F8F0C4B00221A6086F3108870BDA20093
:101C90000B4B0021D1500122A2400A490B789343FB
:101CA0000B7005492000FEF70BFF00212000FEF716
:101CB00099FDE4E7280100D0211B001038600540A1
:101CC000681D00208D320220F0B5DE4600B584B0DC
:101CD0000400150001921E000293FFF78DFF03958B
:101CE0008E4202D84ED185424CD9EFF3108B72B69A
:101CF000274B1B68002BFBD0BFF35F8F254A17785B
:101D00000125A540EBB23B431370234B5D63221DBD
:101D100092000199D150A2002049029850501B6AAC
:101D20002B4212D11C4B1B6C2B4208D00020BFF35E
:101D30005F8F174B00221A608BF3108823E0184B3B
:101D4000184AC521184800F0F3FCFFF755FF8E42F2
:101D500014D802D1039B834210D80E4B1B78BB4290
:101D60000ED00D4B1D625D631F2004400123A34074
:101D70000E4A1360074B1F701E38D8E70020D6E7C5
:101D80000120D4E7012004B080BCBB46F0BDC046B2
:101D9000280100D08D32022000400540283100206B
:101DA00030DE00108CDE001054DE001080E200E017
:101DB000EFF3108C72B60B4B1B68002BFBD0BFF3FC
:101DC0005F8F01238340084A136208490A789A43C7
:101DD0000A70BFF35F8F034B00221A608CF31088E8
:101DE0007047C046280100D0004005408D320220D7
:101DF000EFF3108C72B60B4B1B68002BFBD0BFF3BC
:101E00005F8F01238340DAB20749087802430A70E2
:101E1000BFF35F8F034A002111608CF31088034ADF
:101E200013607047280100D08D3202203C600540CD
:101E300010B500291ED0037B99421BD84B005B18BC
:101E4000033B0468A4466344002919D0002A1DD02E
:101E5000914221D0002A25D0047BA24222D80468D6
:101E600050008018033820188170197800291FD17C
:101E70001A7010BD104B114A6821114800F058FC2F
:101E8000104B114A6F310E4800F052FC0F4B0E4AB6
:101E900070210B4800F04CFC0D4B0B4A7121084897
:101EA00000F046FC044B054A6821054800F040FC60
:101EB00041701A70DDE7C046ECDA00108CDF0010CC
:101EC00008DB001048DB001078DF001054DB001046
:101ED00060DB001070B506000D001400002914D05E
:101EE000002A14D0806873689847002806D0220022
:101EF00029003000FFF79CFF280007E02A0021009E
:101F00003000FFF795FF200000E0100070BD0800D2
:101F1000FCE7000010B50023437301338373037B98
:101F2000C3730123027B9A4214D9002B0CD0027B8D
:101F3000934209D85A00D218033A01688C46624489
:101F40000133DBB25370EDE70B4B0C4A68210C48B0
:101F500000F0EEFB002A09D0924207D80168530036
:101F60009A18033A8A180023537010BD024B034A93
:101F70006821034800F0DCFBECDA00108CDF001075
:101F800008DB001010B5017342608360FFF7C2FFE9
:101F900010BDF8B505000E0017001021012002F059
:101FA00099F904000321280002F094F920603B0015
:101FB000320029002000FFF7E5FF2000F8BD10B532
:101FC0000400006802F0A6F9200002F0A3F910BD99
:101FD00070B50400081E00D170BD002934D0237BE9
:101FE000994231D84B005B18033B22689446634406
:101FF0005A78002AF0D02DD0237B9A422AD8530059
:102000009B18033B21688C4663445D78002159701E
:10201000002825D0237B984222D843001B18033B7D
:1020200021688C4663440021597001002000FFF7AD
:1020300051FF060029002000FFF7CAFF020031000F
:102040002000FFF747FFC7E7084B094A6821094806
:1020500000F06EFB054B064A6821064800F068FB5D
:10206000024B034A6821034800F062FBECDA0010DF
:102070008CDF001008DB001070B505000C001600A6
:1020800000292FD034D0037B994231D84B005B1804
:10209000033B0268944663445A78002A2ED19A780A
:1020A000002A31D11978FFF793FF0300002E0AD0E0
:1020B000EA7B002A2ED1AA7B002A03D1EA7B002AE0
:1020C0003BD1AC73EC73002B3DD1002C4FD02B7B5C
:1020D0009C424CD82B6861000C19033C1C1900234E
:1020E000637070BD254B264A3821264800F020FB3E
:1020F000254B264A6821264800F01AFB254B204A2A
:102100003A21204800F014FB234B1D4A3B211D4877
:1021100000F00EFB002A0AD0297B8A4207D8510022
:102120008A18033A29688C4662445470C3E7164BF8
:10213000164A6821164800F0FBFA184B104A422153
:10214000104800F0F5FA002B0BD02A7B934208D8F8
:1021500043001B18033B2A689446634400229A708C
:10216000B3E7094B094A6821094800F0E1FA064B38
:10217000064A6821064800F0DBFAC046A8DE0010D7
:1021800064DF0010B0DE0010ECDA00108CDF00100D
:1021900008DB0010E0DE001008DF001024DC001077
:1021A00070B504000A00457B2900FFF765FF6073E6
:1021B000280070BD70B50400002967D0437B8B42B6
:1021C0000ED0002911D0037B99420ED84B005B182A
:1021D000033B0268D0188378002B0CD1002056E016
:1021E0000121FFF7DDFF012051E0294B294A682139
:1021F000294800F09DFA002B20D0227B93421DD865
:102200005A00D318033B2268D2182568EB5C8B4236
:102210001AD0002B1BD0227B934218D85A00D31817
:10222000033B2268D21853788B4216D0002BF0D192
:102230001A4B1B4A6B211B4800F07AFA144B154AC3
:102240006821154800F074FA4378137007E0104BCA
:10225000104A6821104800F06BFA4378537000234D
:102260008370437001222000FFF706FF0200617BAC
:10227000814205D02000FFF72DFE6073012006E0AB
:10228000094B074A7121074800F052FA002070BD3F
:10229000ECDA00108CDF001008DB00105CD80010B6
:1022A0004CDF0010B0DE00102CDF0010F8B5DE4669
:1022B00057464E464546E0B505000F0092460A9A3D
:1022C000934250D31A0E91461E020A9A0023300000
:1022D000494601F025FC80466C006419A400304B8F
:1022E0009C4664446368834200D260602B1FDBB26B
:1022F0009B46012B3DD9C0239B0123438022120121
:102300001A60AB00274A9958002907D0506901F09C
:10231000C9FB431C5800C0180338FDD253465A016C
:1023200023685A40E0231A4080235B0123431A604C
:102330005A46012A28D980239B0123438022120177
:102340001A6043466360424600233000494601F06C
:10235000E7FBAD00134B58510120F0BCBB46B24621
:10236000A946A046F8BD104B104A3321104800F092
:10237000DFF9012FBFD1C0239B01234303221A6041
:10238000A368DB07FCD5C9E72168794003220A402E
:102390001A60A2680123BB401342FAD0CBE7C046C3
:1023A00000800040AC1E002098DF0010E8DF001025
:1023B000ACDF001030B583B00C2000F011F9FEF74F
:1023C000E9F800280DD0002304E099002D4A2E489A
:1023D00088500133092BF8D92A4B2C4A5A6203B092
:1023E00030BD2B4B00229A6700F06CF9294B01227B
:1023F0001A60274B5B6C012BFBD1274B03221A6021
:10240000234B9B6B012BFBD1013300930433234AF5
:102410000121234800F054F805230093214A0121AB
:10242000214800F04DF8214B0093002202210420A6
:10243000FFF73CFF1E4D00952B00002201210520D7
:10244000FFF734FF104C00942300002200210720E6
:10245000FFF72CFF00942300002200210820FFF743
:1024600025FF0A4B00932300002200210920FFF7DB
:102470001DFF00952B00002200210620FFF716FF0C
:10248000ADE7C046AC1E0020006CDC021BB70000AC
:10249000008000403CB0004030B00040002F685940
:1024A00000800240008C864700C00240001BB7003D
:1024B000405973078000014BC0587047AC1E002084
:1024C000F0B5C64600B504000E0017001D003748E1
:1024D00001F0E8FA8046364BFA18364B9A4239D862
:1024E0000100380001F0DEFA0200103A98235B0088
:1024F0009A4235D86B1E062B38D8069B013B062B1B
:1025000034D83F09474537D32D04069B1A0315439A
:102510002368002B36DB284B9C4244D0802252019A
:10252000264B1A60264B1A60264B9B681100994374
:10253000FAD12660A060231DC02292011A432123F4
:1025400013602368002BFCDAE5600823136080BC6D
:10255000B846F0BD1C4B1D4A11211D4800F0E8F89B
:102560001C4B1A4A19211A4800F0E2F81A4B174A74
:102570001C21174800F0DCF8184B144A232114489A
:1025800000F0D6F822683F231340B342C3D1A368BA
:102590001B051B0D8342BED1E368EE22D20213401D
:1025A000AB42B8D1D3E780229201B9E7001BB70054
:1025B00080E84BD380F8A93200C0024000E0004020
:1025C00000F0004000C00040F8DF001010E10010F3
:1025D00058E000108CE00010A8E00010F4E00010BB
:1025E00080239B000343014AD3627047008005406B
:1025F000024B1A68024B5A607047C046482C0020B4
:102600000080054010B50200164B8020C005186000
:10261000154B1648186000290AD0154BE021C90453
:102620001960002A09D1124B802212061A6010BDCF
:102630000C4BE021C9041960F3E753019B1A980081
:10264000801800010B4B186080235B04984202D372
:10265000084B094A1A60FFF7CBFF054B8022D205D1
:102660001A60E4E700B0054008200140FCFF0100CB
:1026700000A00540482C0020FFFFFF0010B503001C
:1026800010000C4A8024E4051460002B0DD00122B8
:102690001343094A094CD461094C5C4014625162ED
:1026A00093620021FFF7AEFF10BD034B0022DA61F9
:1026B000F7E7C04600B0054000800540D3C007B032
:1026C0002D3FF84F064BAA2212011A602F22DA6022
:1026D000044B054A1A60024B5B68002BFBDA70471B
:1026E000004002400060024000B0FA0000BEFDE77A
:1026F00003000A4A1268002A08D0084A1068C31862
:10270000074A9A4206D3054A13607047034A0549AF
:102710001160F2E701204042F7E7C046442800205C
:10272000000004209032022010B5FFF7DFFF000008
:1027300010B582B00C001900002A0CD0084B002AFA
:102740000BD00192009323000200064801F058FFCD
:102750000120FFF7CBFF044BF1E7034AF1E7C04646
:102760001CE100102CE100103C00011070B52B4B57
:102770002B4A1A602B4B2C4A1A602C4B9A682A4B16
:102780009343FAD12A4C01E008CC9847294B9C424C
:10279000FAD3FFF70FFE234B274A1A60234B9B689F
:1027A000DB43DB01FAD1254B40229A675A671A674F
:1027B000DA66234C09E0234B234A87212348FFF79D
:1027C000B7FF2000FEF722FB0834214B9C4209D2C0
:1027D0002368002BF5D0012BEDD12000FEF724FB60
:1027E0000C34F2E71B4CA1681B4DC022280001F0FD
:1027F000AFFDA560EFF30583002B00D000BEFDF711
:102800004BFFFEF7BFFAFEF76FFE144C01E008CC59
:102810009847134B9C42FAD370BDC04600E000407D
:10282000BFCDFBFE00F00040FE7F3C0000C000403A
:102830005017002060170020FFFFFF0100F001404B
:10284000401700205CE10010D4E100107CE1001092
:102850005017002000ED00E000000020601700206D
:102860006C1700200FB400B583B0084801F098FE43
:10287000049B002B07D005A90191180001F0A0FED0
:10288000034801F08DFE0120FFF730FFB4E1001096
:1028900078FD001010B50148FFF7E4FFC4E1001017
:1028A000704710B5002802D00B684968984710BDE2
:1028B0000100002007E083001B185B00501C08602B
:1028C0001078C01830380A681378303BDBB2092B17
:1028D000F1D97047F0B5DE4657464E464546E0B55D
:1028E00083B093461F000C9B9A460D9C0E9B994605
:1028F0000F9B9B0703D0B8460F00060022E0019211
:10290000A34688464E46B9460700B44207D2551C36
:102910004B4641462020B84701342A00F5E73D00E8
:102920004F465C46019B9B46B1464646B84637003B
:102930002E0007E0013C551C5346185D4346390004
:10294000B0472A00002CF5D135003E0047460F9BCA
:102950009B0707D4100003B0F0BCBB46B246A946A3
:10296000A046F0BDB0464E46B9462F005D46531B0B
:10297000B342EFD2541C4B4641462020B8472200B8
:10298000F5E7F0B5CE46474680B585B09446984603
:102990000C9D0D9C0EAB1B789946109A119B129EB4
:1029A000B7071CD4002B0CD0F7070AD54F46002FD1
:1029B00002D10C37374204D0013B02E030272F55BB
:1029C0000134944201D21F2CF8D9F70707D59C4255
:1029D00005D21F2C03D830272F550134F5E7F70611
:1029E00015D5770505D4002C03D0944224D09C4201
:1029F00022D00F9A102A2BD00F9A102A30D00F9A7B
:102A0000022A35D01F2C02D830222A5501341F2C1F
:102A100005D84A46002A31D02D222A550134039682
:102A200002930194009543466246FFF753FF05B0B9
:102A3000C0BCB946B046F0BD621E012C06D00F9F47
:102A4000102F01D01400D4E7023CD2E71400D0E7E5
:102A5000B206D1D41F2CCFD878222A550134D1E721
:102A6000B206CCD51F2CCAD858222A550134C9E742
:102A70001F2CC7D860322A550134C3E7720703D52B
:102A80002B222A550134CAE73207C8D520222A55FD
:102A90000134C4E7F0B5DE4657464E464546E0B53C
:102AA00093B081468A46089209931CAB10CB1B78E1
:102AB0009B461E9D219B9846002C03D11023424625
:102AC0009A4390468023DB0046461E4042461A4207
:102AD00012D0002C22D000260EE03033D9B2771C61
:102AE0000AAB99552900200000F0DCFFAC4216D358
:102AF0001F2F14D83E0004002900200000F0D2FF50
:102B0000CBB2092BE9D94246920605D54121C91815
:102B1000C9B20A39C9B2E2E76121F8E727004346A2
:102B20000693209B05931F9B049303955B4602939A
:102B300001970AAB0093099B089A51464846FFF754
:102B400020FF13B0F0BCBB46B246A946A046F0BD7C
:102B5000F0B5DE4657464E464546E0B595B008907E
:102B600009910A920B931E9E1F9C20AB1B789B46DB
:102B7000229B9946239D269B9A463300234303D1EB
:102B8000103352469A4392468023DB0057461F403B
:102B900052461A4219D0330023432DD0002714E0A7
:102BA0003033DAB27B1C98460CABDA554A462B0020
:102BB0003000210000F0B4FFA5421FD819D04346D1
:102BC0001F2B1BD8474606000C004A462B0030003E
:102BD000210000F0A5FFD3B2092BE1D9524692069D
:102BE00005D54122D218D2B20A3AD2B2DAE761222E
:102BF000F8E7B145E3D901E0002398465346069330
:102C0000259B0593249B04934B4603935B460293B9
:102C1000434601930CAB00930B9B0A9A09990898C1
:102C2000FFF7AFFE15B0F0BCBB46B246A946A046C2
:102C3000F0BD0000F0B5DE4657464E464546E0B5CD
:102C400091B083468A460C9298461A9C08941B9D24
:102C5000099522002B002000290001F0DCF9002852
:102C600000D0E5E001225242D74B2000290001F0BC
:102C7000CDF9002800D0DBE001225242D34B2000E6
:102C8000290001F0ADF9002800D0D1E00022002396
:102C9000089E3000099D290001F0A2F9002800D00B
:102CA000DDE008980999069007918023DB001E9AC1
:102CB0001A400D921E9A1A4201D106231C930698BF
:102CC000079904000D000A000600024300D1D1E07C
:102CD000080D4005400DBE4CA44660440A03120B8B
:102CE000BC4B13431F0001F0A9F9BB4ABB4B01F0D9
:102CF00038F9BB4ABB4B01F015F904000D00002266
:102D0000B94B3000390001F008F9B84AB84B01F06E
:102D100028F902000B002000290001F003F901F05E
:102D2000A5F9814601F08AF904000D00B14AB24BC1
:102D300001F017F90022B14B01F0F4F801F096F917
:102D40000600AF4AAF4B2000290001F00AF9040049
:102D50000D00300001F072F9AB4AAC4B01F001F903
:102D600002000B002000290001F0D7F804000D003C
:102D700002000B0001F0F5F80A900B91A44BF31838
:102D800000261F0522002B002000290001F0CAF8B0
:102D90000E900F9122002B0000208021C90501F028
:102DA000BCF804000D0000229A4B0A980B9901F020
:102DB000BEF80022984B01F0B5F802000B000A980B
:102DC0000B9901F0B4F80022944B01F0ABF802002B
:102DD0000B000A980B9901F0AAF802000B002000E2
:102DE000290001F09FF802000B000E980F9901F0E6
:102DF0009EF80022774B01F095F832003B0001F07D
:102E0000B0F806000F0004000D00069A079B01F0C1
:102E1000FDF8002830D001235B429C46E1440022AB
:102E20007D4B3000390001F082F804000D0023E0F2
:102E30001E9B04931D9B03931C9B0293089A099B62
:102E40000092019343460C9A5146584600F0FCF814
:102E500011B0F0BCBB46B246A946A046F0BD002367
:102E6000002406930794069680231B069C4665441F
:102E700007951AE7002399464B466333C62B1ED8A5
:102E800004261E9B1B0526D52B0023430FD0644A26
:102E9000644B0698079901F0B1F8002879D0002218
:102EA000614B0698079901F09BF8002871D01C9B94
:102EB0004B4506DD4A46981A431E1C9303E005263F
:102EC000DFE700231C938023DB001E9A1A431E9227
:102ED0000026002399461D9B9E4264D29F1B02231D
:102EE0001E9A1A400A921E9A134202D0002E00D057
:102EF00000274B46002B07D022002B00069807998D
:102F000001F015F80690079100220023089809990E
:102F100001F066F8002848D1444B1E9A13400493F0
:102F200003971C9B0293069B079C009301944346C6
:102F30000C9A5146584600F087F8002E00D187E7DA
:102F40001E9B9B063DD54525441C43460200514629
:102F50002800D8474B46DA179B18534005220592A4
:102F6000013E0496002203920A3202924A46D00F92
:102F7000019000934346220051465846FFF78AFDD0
:102F80000A9B002B00D163E702005F460C9E1D9D4B
:102F900054E01C9B002B9ED00D9B002B9BD01C9BB8
:102FA000013B1C9397E7002799E7069C079D2200A9
:102FB000290080200006844661440B000692079396
:102FC000AAE76525C0E7C046FFFFEF7FFFFFEFFFE1
:102FD00001FCFFFF0000F03FFB799F501344D33FFB
:102FE000B3C8608B288AC63F0000F83F61436F6317
:102FF000A787D23F71A379094F930A400000E03FB1
:103000001655B5BBB16B0240EF39FAFE422EE63FD2
:10301000FF03000000002C40000024400000184086
:103020002D431CEBE2361A3F80842E41FFF7FFFF51
:10303000541C434651462020B8472200931BAB4204
:10304000F6D3100004E7C046F0B5DE4657464E46BC
:103050004546E0B595B00690079193469946209F66
:103060001E9A1F9B1000190000F0D5FF002831D1D7
:1030700001225242BF4B1E981F9900F0B1FF002859
:1030800037D101225242BC4B1E981F9900F0BEFF5F
:1030900000283DD10022B94B1E981F9900F0B6FFC1
:1030A000002850D10022B64B1E981F9900F098FFBF
:1030B000002848D1002200231E981F9900F090FF9D
:1030C000002850D100239846229B5B0500D4B6E02F
:1030D000002458E0229B0393219B02930323019336
:1030E000A84B00934B465A4607990698FFF7F2FB08
:1030F0000EE1229B0393219B029304230193A24B95
:1031000000934B465A4607990698FFF7E3FBFFE00A
:103110000423229A1A4022990B4210D09B4B002A7A
:103120000FD00422229903912199029101920093D8
:103130004B465A4607990698FFF7CCFBE8E0944BBC
:10314000EDE70322EEE7229B0493219B0393029772
:103150001E9B1F9C009301944B465A460799069864
:10316000FFF768FDD4E01E9A1F9B0020002100F0AD
:10317000D4FE1E901F9101239846A5E70CAB302288
:103180001A55013F01341F2C01D8092FF6D81E987B
:103190001F9900F06BFF050000F050FF02000B00CC
:1031A0001E981F9900F0B9FEFA007A4B9B181A6816
:1031B0005B680A920B9300F0D4FE0890099100F02E
:1031C00079FF060000F036FF02000B00089809990D
:1031D00000F0A3FE0890099100226F4B00F016FF4B
:1031E00000282ED00136300000F024FF02000B0032
:1031F0000A980B9900F0FAFE002801D0013500264C
:10320000002F2CD1280000F019FF02000B001E989F
:103210001F9900F082FE06000F0000225E4B00F0B6
:10322000DFFE002846D100225B4B3000390000F061
:10323000EDFE00283ED1EB073CD501353AE00627EC
:1032400046E70022544B0898099900F0C9FE00286F
:10325000D6D1002E01D0F307D2D50136D0E7AA4649
:103260001F2C11D8013F0A21300000F01BFC651C07
:1032700030310CAB19550A21300000F013FC092E37
:103280000ED906002C00EBE755461F2C0CD87B1EF0
:10329000002F09D00CAA302111551F000134F4E78A
:1032A0002B0055461C00F0E71F2C03D80CAB2E2238
:1032B0001A5501341F2C10D80A21280000F0CAFB2F
:1032C000661C30310CAB19550A21280000F0C2FBF6
:1032D000051E01D03400EDE734000323229A134089
:1032E000012B1CD01F2C06D84346002B32D00CAB30
:1032F0002D221A550134229B0393219B02930194A2
:103300000CAB00934B465A4607990698FFF7E2FA32
:1033100015B0F0BCBB46B246A946A046F0BD219B05
:10332000002B13D04346002B02D10C3313420FD095
:10333000219B013B2193190003E00CAB30221A556D
:1033400001348C42CED21F2CF7D9CBE72199F8E774
:103350002199F6E7229B5B0704D50CAB2B221A556B
:103360000134C8E7229B1B07C5D50CAB20221A5598
:103370000134C0E7FFFFEFFFFFFFEF7F65CDCD41D9
:1033800065CDCDC1F0E10010F4E10010E8E10010DE
:10339000E4E10010E0E300100000E03FF0B5DE469D
:1033A00057464E464546E0B593B082468B4690461A
:1033B0001193002900D1EBE200275546119B1878A4
:1033C000002800D1E7E2252809D07C1C43463A00BA
:1033D0005946A847119B013311932700EEE70133AB
:1033E00011930024119A11780B00203BD8B21028B9
:1033F00003D88300D048C3589F460B00303BDBB254
:10340000092B2CD92A292FD000230A93119B1A7833
:103410002E2A39D000239A46119A1378683BD9B2E4
:10342000122976D88B00C549CB589F4601231C43EF
:1034300001321192D6E702231C4301321192D1E7E7
:1034400004231C4301321192CCE708231C430132B0
:103450001192C7E710231C4301321192C2E711A851
:10346000FFF726FA0A90D1E71C9B1A1D1C921868D8
:10347000002804DB0A90119B01331193C6E7022355
:103480001C4343420A93F6E78022D20014435A1C9D
:1034900011925A781300303BDBB2092B04D92A2A47
:1034A00007D000239A46B7E711A8FFF701FA824632
:1034B000B2E71C9B1A1D1C921868002804DB824688
:1034C000119B01331193A7E70020F8E780235B00ED
:1034D0002343511C119152786C2A01D01C0018E032
:1034E000C0239B001C430131119112E08023234330
:1034F000511C11915278682A01D01C0009E0C023A8
:103500001C430131119104E080235B001C43013214
:103510001192119B18780300253BDAB2532A00D987
:103520002CE29300864AD3589F4680239B001C437D
:1035300001321192EDE780235B001C4301321192AE
:10354000E7E7782809D0582838D06F2838D0622883
:1035500038D010239C430A2600E01026582833D088
:10356000692803D0642801D00C229443630501D557
:103570000122944369282AD0642828D0A30500D5C5
:103580009FE0E30500D5B8E0630600D4CAE01C9ACA
:10359000111D1C911168FF220A4005940A9B049397
:1035A00053460393029600230193009243463A0048
:1035B00059462800FFF76EFA070027E01026CDE7EE
:1035C0000826CBE70226C9E720221443C8E7A30553
:1035D00020D4E30550D4630666D51C9A111D1C91B6
:1035E0001168FF220A40D317D118594005940A9B4D
:1035F0000493534603930296D20F019200914346DF
:103600003A0059462800FFF745FA0700119B01339D
:103610001193D3E61C9BDA1D07218A431100083160
:103620001C91116853689C46DB170C930D930C9A00
:103630000D9B100048400E90624653400F930E9829
:103640000F990C9A0D9B801A99410E900F91089436
:103650000A9B0793534606930496002305936346FB
:10366000DA0F02920090019143463A005946280031
:10367000FFF76EFA0700C9E71C9A111D1C9112682A
:10368000D317D118594005940A9B049353460393CA
:103690000296D20F0192009143463A005946280003
:1036A000FFF7F8F90700B1E7230605D51C9A111DAD
:1036B0001C910023D25E96E71C9A111D1C91126882
:1036C00091E71C9BDA1D07218A43110008311C91E8
:1036D00008940A9B07935346069304960023059388
:1036E0000293136854680093019443463A00594684
:1036F0002800FFF72DFA070088E71C9A111D1C917E
:1037000005940A9B04935346039302960023019366
:103710001368009343463A0059462800FFF7BAF968
:10372000070073E723060DD51C9A111D1C91126822
:103730001204120C31E7C046FCE1001040E2001018
:103740008CE200101C9A111D1C91126825E7462876
:103750001AD01C9B0733072293431A0008321C928D
:1037600004940A9A0392524602925C681B68009382
:10377000019443463A0059462800FFF765FC0700CC
:10378000119B0133119319E620231C43E1E76728BD
:1037900001D0472802D180231B011C43452801D0BA
:1037A000472801D120231C431C9B07330722934346
:1037B0001A0008321C9204940A9A0392524602920A
:1037C0005C681B680093019443463A005946280000
:1037D000FFF730FA0700119B01331193EEE5022346
:1037E0001A002240924623421FD001241C9B1A1D1E
:1037F0001C927A1C9146187843463A005946A847CD
:103800005346002B16D1119B013311934F46D5E53A
:10381000561C434659462020B847230032005C1C02
:103820009D42F5D83D001700E0E701233A002F0044
:103830000A9DF4E74A46A9460A9D06E0571C4346FE
:1038400059462020C84734003A00661CA542F5D8E6
:103850004D469146D7E71C9B1A1D1C921B68994642
:103860005346002B00D1013B4E4601E001361300C8
:103870003278002A02D05A1E002BF7D14B46F21A9A
:1038800010928023DB0026001E401C4203D05245CC
:1038900001D95346109302231A0022400B9223426F
:1038A00005D03A0037004C46A946554620E03A007C
:1038B000109B5F46B3462E0006E0551C4346390078
:1038C0002020B04723002A005C1C0A999942F4D8B2
:1038D00035005E46BB46109437004C46A946554617
:1038E00006E01D000134561C43465946C8473200C5
:1038F0002078002804D0002FF4D06B1E002DF0D1CA
:1039000017004D460B9B002B03D1119B01331193E4
:1039100054E50A9F109B06E0561C4346594620205A
:10392000A847230032005C1C9F42F5D81700ECE743
:1039300021231C431C9B1A1D1C921B680093059499
:103940000823049353460393102302930023019307
:1039500043463A0059462800FFF79CF80700119BA0
:10396000013311932AE57C1C43463A005946252031
:10397000A847119B0133119327001FE57C1C434688
:103980003A005946A847119B01331193270015E5CA
:103990000A4B9A4610E5AA46474502D343465A1EAB
:1039A00000E03A00434659460020D047380013B0A3
:1039B000F0BCBB46B246A946A046F0BDA128001007
:1039C00000B585B0029003910121009313004A4293
:1039D00002A90248FFF7E2FC05B000BDA3280010D1
:1039E00001480421014B1847700E00201D3A0010B9
:1039F000014B9B6818470000700E002010B50100B5
:103A000018231B8814221088984710BD10B5010098
:103A100018231B8816221088984710BDF0B5C6469B
:103A200000B507000E0000250123984600E001358F
:103A3000B5420AD2AC003C192068FFF7DFFF2060D6
:103A40000028F4D100239846F1E7404680BCB846F0
:103A5000F0BD0000124A936F9B0815D29066D166A4
:103A6000002905D0FFE7FFE7FFE7516F106F7047B0
:103A700004B580210906C2175140002800D0C84370
:103A800009F092FC002104BDF0B5146E556E576F1D
:103A9000166FFFF7E3FF1466556657671667F0BDAC
:103AA000000000D0114A936F9B0813D21066516634
:103AB000002905D0FFE7FFE7FFE7516F106F704760
:103AC00004B5002801D00020C04309F06DFC00219E
:103AD00004BDC046F0B5146E556E576F166FFFF7F4
:103AE000E5FF1466556657671667F0BD000000D005
:103AF00094464A4A926F9208624601D228E0C04634
:103B0000F0B5464E346E756E776F366F00F020F864
:103B10009446424A14665566576716676246F0BD7A
:103B200094463E4A926F9208624601D254E0C046E3
:103B3000F0B53A4E346E756E776F366F00F04CF814
:103B40009446364A14665566576716676246F0BD56
:103B5000002B24DB11D000293EDA00B5C9434042D6
:103B600000D1013100F038F8C943404200D10131A1
:103B7000DB43524200D1013300BD002AEBD10028C3
:103B800001D1002905D00020C90FC90701D1C043C8
:103B9000410800B509F0F8FB0022002300BD00B584
:103BA00000290ADBDB43524200D1013300F014F854
:103BB000C943404200D1013100BDC943404200D158
:103BC0000131DB43524200D1013300F005F8DB4301
:103BD000524200D1013300BD002923D1002B18D15E
:103BE000002A0CD0BC460D4F38667A6600210023AF
:103BF000FFE7FFE7FFE77A6F386F674670470028F7
:103C000001D00748010000B509F0BEFB00220023E7
:103C100000BD02000B00002000217047000000D012
:103C2000FFFFFFFF002B00D0BFE0130C28D1002ABC
:103C3000E7D080B4114F39667A66FFE7FFE730B40A
:103C4000040C7B6F396F1B0423433B667A66FFE7E6
:103C5000FFE7FFE7C04684B27B6F3D6F1B04234341
:103C60003B667A66FFE7FFE7C04600232C042D0C75
:103C70007A6F386F00196941B0BC7047000000D0FE
:103C8000F0B594460025140E01D112020835140F28
:103C900001D112010435940F01D192000235D40FE5
:103CA00001D152000135D40B0134254F7C66254CDF
:103CB0003C660E0C93B2FFE7FFE7FFE73C6F6643FD
:103CC000360C7703BE467343DF0B5B04C01AB94161
:103CD000130C7343DB18C91ACE086643360CB6447E
:103CE00093B273431F0F1B01C01AB941130C7343E6
:103CF0001F0B1B05C01AB941860D8F023E43664358
:103D0000360C092D24DB520A7243801A7703460AC7
:103D10006643360C16235B1BDE40DF40BF1964464A
:103D20006643821B7046043506330100D940A84023
:103D3000C01900D30131A24206D20023F0BD000019
:103D4000000000D0FFFFFFFF121B0130F3D3F1E7AB
:103D500009277F1BFE406446A2B27243801A00D23C
:103D60000139220C7243130C1204821A99410B0080
:103D70007046043513370100F940A840801900D37C
:103D80000131002B02D1A2420AD2F0BD013000D392
:103D90000131121BFAD2013BF8D1A24200D2F0BD90
:103DA000013000D30131121BF7E7F0B51C0C00D035
:103DB00080E00CB400251C0A04D11B02160E33430C
:103DC000120208351C0B04D11B01160F33431201DC
:103DD00004359C0B04D19B00960F334392000235AF
:103DE000DC0B02D192185B4101351C00971864412D
:103DF0000134464F7C66464C3C660E0CFFE7FFE7FD
:103E0000FFE7C0463C6F6643360C7703BE4697B269
:103E10007743C01B00D20139C01B00D201399FB2C9
:103E20007743C91BC91B170C77437E04FF0B801B0C
:103E3000B941CE086643360C0C2D33DBB644120B69
:103E40001F053A431B0B97B27743C01B00D20139C1
:103E50009FB27743C91B170C77433E043F0C801B6E
:103E6000B941860D8F023E43664329277F1BFE40E2
:103E70000C3D7746AF40BF1930BCA2B2ABB2724323
:103E80007343801A9941220C7243130C1204801A56
:103E9000994102000B000137001BA941F9D2781E9D
:103EA0000021F0BD0C277F1BFE4077467F0BAF4003
:103EB000FF19E0E700245D1C07D0144F7D663966CA
:103EC000FFE7FFE7FFE7FFE73C6F95B29EB2654370
:103ED0006643401BB141150C1E0C65436643360416
:103EE0002F0C3E432D04401BB141994204D20200E5
:103EF0000B0020000021F0BD01D19042F7D3801AC1
:103F0000994101349942F2D3F6E70000000000D055
:103F1000FFFFFFFF48404140484018B4134B5B6827
:103F2000019308BD18B4114B1B68019308BD94465A
:103F30000F4A926F920805D2624618B40B4BDB68A9
:103F4000019308BD0A4AF0B5146E556E576F166F8F
:103F50006246FFF7F2FF064A146655665767166712
:103F6000F0BD18B4014B9B68019308BD182F0020C9
:103F7000000000D0FFB550404240504059404B40F7
:103F8000594000E0FFB5154F4C00640D03D0BC4212
:103F900004D10C0314D80020090D09055C00640D40
:103FA00003D0BC4204D11C030AD800221B0D1B0500
:103FB00001264B4009D44B4003D58B4200D18242AD
:103FC000FFBD9942FCD19042FFBD0B43DB18034378
:103FD0001343F5D0C9434918FFBD0000FF07000097
:103FE00000B5FFF7CFFF804100BDC04600B5FFF729
:103FF000C9FF01D9002000BD012000BD00B5FFF7B9
:10400000B9FF01D9002000BD012000BD00B5FFF7B8
:10401000B1FF804100BD012040054A00121804D8BC
:104020005A00121801D80020704701207047002064
:10403000704700000021002805D17047C117484093
:10404000401AFAD0C90713B5064B1B6898470CBC39
:10405000441CA2401005120B0349091B0905194312
:10406000114310BD183000201F04000010B54C0093
:10407000620D8023D218DB00D21A5B057E2A10DD88
:104080009E3A13DACC170903490819435242D1402A
:10409000640001341532202A05DAD0400843604319
:1040A00010BD002010BD0846604310BDC80FC018E9
:1040B000013810BD18B4024B5B6A019308BD0000C3
:1040C000182F002010B50148FEF7CCFB30E400109B
:1040D00070B513231C78012C14D0012C14DC022C95
:1040E00002DC1F4A1F4B9A641F48FFF787FC1F4BD7
:1040F000186070BD99001E481A4A885001331F2B62
:10410000F8D9EAE70023FAE71A48FFF77FFC050031
:104110001948FFF77BFC023803789B007F2B19DDE1
:10412000802229000F4800F013F9022CD7D1134B3D
:104130001A88B5231B029A4209D1114B1A88114BD8
:104140009A4204D1104B1A88104B9A42C7D00020D3
:10415000FEF788FB0E4B0F4A32210F48FEF7E8FAB4
:104160009D410010182F00204C3300001830002013
:10417000C54000105344000053460000543800006E
:10418000D8380000494600009C380000594600001D
:1041900048E40010DCE400109CE4001007B5604621
:1041A000002800D100BE01880A0A0230DF2AFAD1B5
:1041B000C9B2820804D3028840880004104300E09A
:1041C0000068024A5050039007BD0000182F0020DD
:1041D00051434343C9188C46110C83B24B4310B46E
:1041E000040C614392B280B2504362431C041B0C26
:1041F000001910BC59411304120CC01851416144FC
:104200007047000010B50148FEF72CFB3C00011080
:1042100070B513231E781848FFF7F8FB0500012E30
:1042200011D0012E09DDAB1E1B789B007F2B1DDDFD
:1042300080222900114800F08BF81148FFF7DEFBBF
:10424000104B186070BD542201000C4800F080F83B
:10425000002300E001331F2BE3D89A00074C1259CA
:10426000002AF7D19A0008481051F3E7074B084A93
:1042700042210848FEF75CFA534600001C3000203B
:104280004C3300001830002005420010F0E400100C
:1042900060E5001024E5001070B504000A4E3000FF
:1042A00009F0F2F8200008F045FB0500300009F0A5
:1042B00063F8002D05D02C19044B9C4201D828002E
:1042C00070BD0348FEF7CEFA40170020000004201E
:1042D00074E5001070B505000C000B4E300009F0BD
:1042E000D3F82100280008F0C5FA0500300009F0D5
:1042F00043F8002D05D02C19044B9C4201D828000E
:1043000070BD0348FEF7AEFA4017002000000420FD
:1043100074E5001070B50400054D280009F0B4F8EC
:10432000200008F011FB280009F026F870BDC046F7
:104330004017002001480421014B1847800E00203F
:104340001D3A0010014B1B6818470000800E00202A
:10435000014B5B6818470000800E002010B5030079
:10436000080011001B68984710BD0000F8B5070051
:104370000D001600437D002B02D0002400200CE02D
:1043800003681100280098472DE03B7D10E00221D2
:1043900015483B689847601C0134B44214DA002C7D
:1043A000F3DD2B19013B1B780D3B5A425341DBB225
:1043B0002A5D0A2AF0D1002BEED1A042E7DA211AB9
:1043C00028183B689847E2E7B04203DA311A281808
:1043D0003B689847002E06DDAD19013D2B780D3B5B
:1043E0005A4253413B75F8BD10E6001070B5050008
:1043F0000368002B16D00C4B1C6805E0290004C98B
:104400002000FFF7B3FF2469002C09D02368002B9C
:10441000F9D0064B1B68002BF0D0A342F3D1EDE797
:1044200000232B6070BDC0463428002040280020A7
:1044300070B505000C000B68802B05D021684B1C63
:1044400023606418257170BD0800FFF7CFFFF5E702
:1044500010B5FDF7D1FB02000B1E0BDB0D48002150
:1044600012184B41002B0BDB002B0DDB0A4808F028
:10447000D3FF10BD094B0A4A3F210A48FEF758F9FD
:1044800001225242084BEFE7044B054A3F21054801
:10449000FEF74EF940420F004817002064D9001083
:1044A000F8E5001080D90010FFFFFF7F10B502482B
:1044B00008F062FF10BDC04648170020F0B5CE4698
:1044C000474680B583B006000D0090461C00FFF7FC
:1044D000BFFF81466B1C05D0002C08D0194F1A4B2A
:1044E0001C6807E0300008F097FD0500F4E7174F5F
:1044F000F5E72469002C17D02368002BF9D0144B62
:104500001B68002B01D0A342F3D12A003100200008
:10451000B8474346002BECD06B46D91D0A230B70DD
:1045200001222000B847E4E74B46002B07D16B1E61
:104530009D41E8B203B0C0BCB946B046F0BDFFF73C
:10454000B5FFF4E75D430010342800206D430010F0
:1045500040280020094A01E010331A001368002B9C
:1045600008D08342F8D1002907D1036913600023E2
:10457000036102E0002900D0106070473428002059
:1045800010B5064B1C6801E098472469002C03D045
:104590006368002BF8D1F8E710BDC046342800202E
:1045A00070B5050008F038FD040000230122010069
:1045B0002800FFF783FFFFF7E3FF200070BD000036
:1045C00070B5A2B004000E00FFF742FF0500002303
:1045D00001933300220001A90848FFF7F1F9040014
:1045E00001A8FFF703FFFFF7CBFF002D02D120004A
:1045F00022B070BDFFF75AFFF9E7C0463144001002
:104600000FB400B583B004A901C90191FFF7D8FF29
:1046100003B008BC04B0184710B500F037F910BD5E
:1046200070470000014B00221A7070478A32022046
:104630004B79FF2B0CD18B79002B0BD1CB79012B34
:104640000AD1082A0AD98A78054B1A70092000E095
:10465000002070470020FCE70020FAE70020F8E780
:104660008A3202200120704770B504000D00034813
:10467000FFF7C4F9030029002000984755420000C5
:1046800010B5012926D1117953791B020B43124928
:1046900009788B4201D000201DE05378012B03D014
:1046A000022B10D0002016E09178D3781B0219431A
:1046B000DB0506D54B0A012098407F231940FFF700
:1046C000D3FF0020F9E7642200210020FDF7D6FF88
:1046D000012000E0012010BD8A3202200123037076
:1046E0000048704714E6001010B50B7848780002B7
:1046F00018438A7812041043CB781B060343962292
:10470000D200934200D010BD00210800FFF7ACFF9B
:10471000024B1860024B19607047C046A01E002073
:10472000A41E002010B5024B1878FCF763F810BDEA
:104730008B32022070B5134B1B68002B1DD0114B20
:104740001968EFF3108372B60A68002AFCD0BFF331
:104750005F8F0C494B6000220B4802700968BFF361
:104760005F8F0A6083F3108800240025074B1878B8
:10477000FCF740F82000290070BDFA24A4000025B1
:10478000F4E7C046502C00208C3202208B320220ED
:1047900010B584B000212D4808F01EFE00283AD143
:1047A0002B4B1B68002B3ED0294B1968EFF310826E
:1047B00072B60B68002BFCD0BFF35F8F24494A60B0
:1047C0002448037801246340DBB2012404700968A3
:1047D000BFF35F8F0020086082F31088002B22D087
:1047E000FCF7A2FE0400FDF707FA02000B1E1CDB1B
:1047F000FA208000002112184B41002B1BDB002BFC
:104800001DDB01210291002101911349009120003B
:10481000FCF7FEFE07E001200021404201F0F8F81D
:104820000A4808F0A9FD04B010BD0C4B0C4A3F210A
:104830000C48FDF77DFF012252420B4BDFE7074B8F
:10484000074A3F210748FDF773FFC046203100208B
:10485000502C00208C3202203547001064D9001003
:1048600098E6001080D90010FFFFFF7F10B5054BC0
:104870001868002804D0044B1968002200F0EEFDEF
:1048800010BDC046A01E0020A41E002010B584B09C
:10489000D0231B061C68FCF747FEFDF73BF8A0423F
:1048A0002AD1324B1B7801F09BFD3148FCF7AEFA60
:1048B0000120FCF77FFAC0B22E4C20702E49FBF786
:1048C000BBFF20780121FBF78DFF0520FBF7A2FF3E
:1048D000041E17D0002229490520FBF7D7FFFBF75C
:1048E000EBFE01002648FCF7AFFA01212548FFF74F
:1048F00031FE200004B010BD234B244AB2212448CD
:10490000FDF716FFFCF710FE0400FDF775F9020035
:104910000B1E1BDBFA208000002112184B41002BDC
:104920001ADB002B1CDB01210291002101911949A6
:1049300000912000FCF76CFEC443E40F0822002124
:104940000F48FFF7FFFC002CD3D0CEE7124B134AE1
:104950003F211348FDF7ECFE01225242114BE0E7E4
:104960000D4B0E4A3F210E48FDF7E2FEF87E041083
:10497000203100208B320220914700102547001083
:10498000502C0020900E002020D8001088E6001047
:104990002CE600103547001064D9001098E600108E
:1049A00080D90010FFFFFF7F10B5002001F038FA1A
:1049B00010BD000070B505000C00FFF7F5FF0028E2
:1049C00045D0002001F04EFA002843D0FDF714F93D
:1049D00002000B1E21DB2248002112184B41002B44
:1049E00021DB002B23DB1F4808F016FD002834D004
:1049F000FFF7DAFF002804D0002001F033FA002886
:104A00001BD101200021404201F002F8032464423E
:104A1000144808F0B1FC200070BD134B134A3F212D
:104A20001348FDF785FE01225242124BD9E70E4B87
:104A30000E4A3F210E48FDF77BFE22002900002090
:104A400001F01CFA041EE3D103246442E0E70324CE
:104A50006442E0E703246442DDE703246442DAE7CA
:104A600040420F002031002064D9001098E6001069
:104A700080D90010FFFFFF7FF0B5C64600B5804625
:104A80000C00FDF7B9F802000B1E0FDB37480021C0
:104A900012184B41002B0FDB002B11DB344808F0C0
:104AA000BBFC002812D180BCB846F0BD314B324A65
:104AB0003F213248FDF73CFE01225242304BEBE7EA
:104AC0002C4B2D4A3F212D48FDF732FEFFF76CFF9E
:104AD000002849D12B4B0020002118605960244840
:104AE00008F04AFCDFE701200021404200F090FF7F
:104AF000002001F0D7F9FFF757FF0028EFD0002082
:104B000001F048FA002820D0A542E8DA661B002010
:104B100001F040FA0200864200DC3200002AE2D0B6
:104B200043465919002001F019FA0600012000211E
:104B3000404200F06DFF002001F0B4F9AD19FDF71F
:104B40005BF8104B18605960DEE7FDF755F80D4B28
:104B50001E685F680C4A002392197B419942BED8B7
:104B6000D2D19042D0D9BAE70025CDE740420F001C
:104B70002031002064D9001098E6001080D9001080
:104B8000FFFFFF7FC018002020A1070000487047EA
:104B900030E7001000487047DCE6001010B5040054
:104BA000154B1B78002B0ED0002C11D1134B144A3F
:104BB0005A80012301335B001BB2C02292001343D1
:104BC0000E48038010BD11210B4800F02DF8EBE7D3
:104BD000052C0ED8A4000B4BE4580023122BE9D867
:104BE000E25C002AE6D00133590004484252DBB2AD
:104BF000F4E70020E6E7C0463C3102200C28002004
:104C00000904000044E7001010B5024800F03CF829
:104C100010BDC046102F002010B508220149FFF733
:104C200097FB10BD102F002010B5002901D00023E4
:104C30000AE0114B114A1F311148FDF779FD00249C
:104C40000DE03732C25401334A1E9A420FD90F2B5E
:104C50000DD85A080B4CA25CDC07F0D40424224186
:104C600014000F222240092AEBDC3032EAE7C01898
:104C70000023037010BDC0465CE70010A0E70010E1
:104C800064E70010102F002070B588B0040004AD58
:104C9000002604960922002105A8FFF753FB009681
:104CA0000922002101A8FFF74DFB4B232B700D2299
:104CB0006946280008F058FB002304E05A1D6946A5
:104CC0008A5CE2540133072BF8DD08B070BD0000A8
:104CD00002007F201040D209400080184001014BA3
:104CE000C01870474828002010B5038B3F333F227F
:104CF0009343022915D0124C2268C260D318236056
:104D00009C0610D10F4C6240634080246401A34292
:104D10000FD88906114380231B0619434368196085
:104D200010BD5B00E7E7084B084A54210848FDF72F
:104D3000FFFC084B054A56210548FDF7F9FCC04623
:104D40004C2C00200000105020E9001030EA001028
:104D500050E900109CE90010F8B505000E001400A1
:104D6000FFF7B6FF7F232B40EF0985707A427A4127
:104D700042700022C2700683C476012F0DD0DA0083
:104D800012498C4662448260826800211160002BC7
:104D900009D143600E4BC360F8BDDA000D498C4663
:104DA00062448260F0E7012F09D0013BDB000A4A30
:104DB0009446634443602100FFF796FFECE7013B14
:104DC000DB00064A944663444360F4E784001050D5
:104DD00000011050800010500C00105008001050BE
:104DE00070B50C001500FFF773FF2A00210000F0DA
:104DF0000DF970BD10B5002804D101210520FBF785
:104E0000F1FC10BDD521034B034A49000348FDF7CF
:104E10008FFCC046E4E9001020EA001050E90010C1
:104E200010B5002805D1002200218020FFF7D8FF0F
:104E300010BDDB21024B034A49000348FDF778FC13
:104E4000E4E9001010EA001050E90010024B802243
:104E50005202DA647047C0460020115070B5041E3B
:104E600026D100F0ADF8164D0C23AB67FF22154993
:104E70000520FBF70BFD402200211348FFF762FAE3
:104E8000002240210020FFF767FF00224021802000
:104E9000FFF762FF08F0C8FA01232B6480239B050B
:104EA000EB649023094AEA502000FFF7CFFF70BD62
:104EB0008621074B074AFF310748FDF739FCC046FA
:104EC00000001150B90600204828002010D0010031
:104ED000E4E9001044EA001050E900100B785B068A
:104EE00002D14B78052B00D070478A78014B1A60AD
:104EF000FAE7C0460000115010B50C0000280DD193
:104F0000097963791B020B435B05590DE27892071F
:104F1000920FA078FFF720FF012010BDFC21034B6A
:104F2000034AFF310348FDF703FCC046E4E90010E3
:104F300000EA001050E9001010B508F075FA10BD35
:104F400010B50400080011001A00002C03D1FFF76F
:104F500047FF012010BD034B034A04490448FDF7F5
:104F6000E7FBC046E4E90010F0E900100A02000087
:104F700050E9001010B508004B0605D1CB09012BF4
:104F80000AD00222054B9A66FFF7A2FE8022120188
:104F9000002108F071FA10BD0122F3E70020115042
:104FA00010B508004B0600D110BDFFF791FE00239D
:104FB000C3700022014908F05FFAF5E7FFF7FFFF31
:104FC00010B580235B040C4A13600C4A13600C4B31
:104FD0009A6880235B049343F9D10A4C9C220021F8
:104FE0002000FFF7AFF98022520100210648FFF7A9
:104FF000A9F90923636710BD00E0004000F00040FC
:1050000000C00040000011500000105070B50400B6
:105010000D001600837E002B17D1A6820023E382A9
:105020000133A3762561200008F0EEF9002804D0B2
:10503000094A902380218902D150200008F00CFAFF
:10504000002805D00123237770BD08F00DFAE4E7AE
:10505000200008F0F1F9F7E70020115070B50500C5
:1050600000240CE063001B19DA00184B1B689B1826
:10507000002B2AD05B68280098470134E4B2144B17
:105080001B78A34210D3134A002A0BD0A342E9D8BD
:10509000E31ADBB2002B18D15A00D218D2000E4B03
:1050A0009B18E5E72300F5E70C4C53220021200074
:1050B000FFF748F9E01C1022FF21FFF743F9200019
:1050C00013302022FF21FFF73DF970BD1C1900208D
:1050D00084320220DD460010C8EB0010441C002082
:1050E00010B5FFF7BBFF00F0F1FD10BD70B5050076
:1050F0000C001600C86800F0F3FDE36832000121DF
:105100002800984770BD0000F0B5DE4657464E4671
:10511000C0B582B000900139C8B2FFF73BFD00284E
:1051200000D18CE043789A46022B00D089E0C57903
:105130006A11013B4B491A4014010A781027BA43FF
:1051400022430A70AD112B405B01D2B22024A2434E
:1051500013430B70060009368278C4782402144386
:105160000419A64264D273780B2B09D001239B4605
:105170007378042B6CD1A31B9BB29946002525E0C4
:10518000F3789B463378F618F2E76F007F19FB003F
:10519000354A1768FF182BE02B0022E0BA68334B22
:1051A0009A4234D1D34632E02E482B00019F3A0078
:1051B0003100133001F0A2F9BC4666442C4B1B7839
:1051C000AB42CED200203DE00135EDB2284B1B783A
:1051D000AB42F3D3274A002ADED0AB42D5D8EB1A34
:1051E000DBB2002B36D15F00FB18DB00224FFF182B
:1051F000002F31D04A4631000098BB689847019093
:105200000828E1D98145DFD35B46012BC6D00022B7
:105210009345C9D9B3789B18DBB21249C918C9782C
:10522000FF291BD10F49CB18DD700132D2B2EFE755
:10523000124B002B14D000E000BF012002E0002040
:1052400000E0002002B0E0BCBB46B246A946F0BD7B
:105250000020F7E70020F5E70020F3E70020F1E762
:105260000120EFE7441C00201C190020B160001051
:1052700084320220DD460010C8EB00100000000060
:1052800070B505000C00CB7888780F2B50D89A00A9
:105290002E498A589746FFF779FC02001223210015
:1052A000280000F0D9FC44E0294B002B42D000E05C
:1052B00000BF021E40D08178C3781B020B4321003F
:1052C000280000F0C9FC34E0022B09D0214B002B50
:1052D00034D000E000BF0200002A05D1002028E001
:1052E000FFF758FC0200F7E79178D3781B020B43D5
:1052F0002100280000F0B0FC1BE02379617909024D
:105300001943FFF74BFC021E1AD003782100280036
:1053100000F0A2FC0DE0104B002B13D000E000BF0A
:10532000021E11D003782100280000F095FC00E057
:10533000002070BD0020FCE70020FAE70020F8E71D
:105340000020F6E70020F4E70020F2E73CEB001035
:10535000000000000000000000000000024B587830
:10536000431E9841C0B27047441C0020024B18787D
:105370004007C00F7047C046441C0020034B1878FC
:10538000FF38431E9841C0B27047C046CC0E002083
:1053900070B50400FFF7F2FF061E01D0300070BDAB
:1053A000532200212348FEF7CDFF234D2800FBF7B1
:1053B0002DFD224B1D60224D28001430FBF74EFDC1
:1053C000280001F0F0FB1F4B1D601F4B002B04D089
:1053D0001E48FFF783F91E4B186000250BE06B0099
:1053E0005B19DA001A4B1B689B18002BD6D01B6880
:1053F00098470135EDB2154B1B78AB4210D3124ADA
:10540000002A0BD0AB42EAD8EB1ADBB2002BC5D195
:105410005A00D218D2000F4B9B18E6E72B00F5E795
:105420000D4B1C702000FFF719FD2000FFF7E2FC78
:105430000126B3E7441C0020FC1B0020981C002020
:10544000B00E00209C1C0020DD460010843202209B
:105450001C190020C8EB0010CC0E0020F0B585B060
:1054600007000E00150001AC0C2200212000FEF701
:1054700069FF08236370029703962900200007F054
:10548000BBFF05B0F0BD000070B50C00094B1D78E6
:105490008B7870221A4201D0002070BD064B99789B
:1054A000200000F0EFFF0028F7D021002800FFF7D0
:1054B00023FDF2E7CC0E0020441C0020F8B5CE46B8
:1054C000474680B581460C0017001E00089B984691
:1054D000002504E0099A13702378E4180135AF42DF
:1054E00014DD6378052B16D1E1788907890FB14265
:1054F00013D121004846FFF7C7FF002807D0A37843
:10550000DA09012AE6D042461370E5E70120C0BC63
:10551000B946B046F8BD0020F9E70020F7E70000E3
:1055200010B57F200840C9094000401830300449B8
:1055300008180330034B196800F05EFF10BDC04629
:10554000441C0020981C002010B57F200840C90989
:10555000400040183030044908180330034B1968E4
:1055600000F072FF10BDC046441C0020981C0020B3
:10557000F8B5CE46474680B5194800787F250D40DE
:10558000CE096F00174CE419A4193034E478E4070D
:1055900004D50020C0BCB946B046F8BD114CE41992
:1055A000A4193027B946A1444C46E4780127BC46EB
:1055B00067463C4327004C46E770FFF7C1FC0028D4
:1055C000E8D16D00074B5D19AE193036F378012232
:1055D0009343F370F37803329343F370DAE7C046F2
:1055E000CC0E0020441C002070B50F4B18787F248F
:1055F0000C40CD0962000D4B9B185B193033DB78F2
:105600009B0700D570BDFFF7B5FC6300074CE4189D
:1056100064193034E37802221343E370E378012203
:105620001343E370EEE7C046CC0E0020441C00207C
:1056300070B50F4B18787F240C40CD0962000D4BDC
:105640009B185B193033DB789B0700D470BDFFF7E4
:10565000A7FC6300074CE41864193034E378022295
:105660009343E370E378013A9343E370EEE7C04677
:10567000CC0E0020441C00207F220A40CB0952009F
:1056800003498918C9183031C8788007C00F70479E
:10569000441C0020F0B5C64600B582B005000C00E1
:1056A000002000F01DFB237860221340602B00D106
:1056B00085E1402B0FD02278D206D20E012A00D1EC
:1056C000C9E0022A00D10FE1002A11D0002002B067
:1056D00080BCB846F0BDC74B002B00D171E118006B
:1056E00000F0FEFA22000121280000E000BFEEE7F2
:1056F000202B0AD0002B00D06BE16378092B00D956
:1057000069E19B00BC4AD3589F4623790F2B00D9EF
:1057100059E1BA4AD318DB78B94A002A05D0B94A08
:105720001278934211D39B1ADBB2002B00D04CE1CC
:105730005900CB18DB00B449C918002900D146E153
:1057400022002800FFF7D2FCC1E75900CB18DB008C
:10575000AE4A1168C918F0E7200000F0C7FAA17836
:105760002800FFF75DFBA54A137802210B43137055
:105770000120ACE7A14B5B786A4606321370012327
:105780002100280000F068FA0120A0E7A6789B4BD2
:105790005B78DBB2B34205D0984B5B78002B09D124
:1057A000002E13D1954B5E702100280000F038FACE
:1057B00001208CE72800FFF7BFFB904FBB7898468D
:1057C0002800FFF74BFC4346BB70E9E73100280097
:1057D000FFF79AFC0028E5D179E721002800FFF7C0
:1057E0004FFD74E7A278E3781B021343012B01D02D
:1057F00000206CE7814A137808210B4313702100C5
:10580000280000F00DFA012061E7A278E3781B027E
:105810001343012B01D0002059E7784A137808215F
:105820008B4313702100280000F0FAF901204EE7A5
:10583000724B1A785109920801230B4002210A4049
:1058400013436A460632138002232100280000F029
:1058500003FA01203BE723790F2B00D9BDE0674A0B
:10586000D318D978664B002B05D0664B1B7899422C
:1058700028D3C91AC9B2002900D0B0E04B005B1888
:10588000DB006149C918002900D1AAE022002800E4
:10589000FFF72CFC002800D019E7237860221A4279
:1058A00000D014E763780A3B012B00D90FE700F022
:1058B00017FA63780A2B0CD02100280000F0B0F909
:1058C000012004E74B005B18DB00504A1168C9183F
:1058D000D9E76B469A1D002313700133210028007D
:1058E00000F0BAF90120F2E621797F220A40CE09C0
:1058F0007020084277D15200404882189219D27C19
:105900003F48002805D03F480078824212D3121A3F
:10591000D2B2002A15D15600B218D2003A4EB618AB
:10592000002B10D0002E60D0220031002800FFF79D
:10593000DDFBCCE65600B218D20034480668B61833
:10594000EEE70026ECE76378012B12D0032B10D092
:10595000002B01D00020BAE62800FFF78DFE6B4631
:105960009A1D108002232100280000F075F9012003
:10597000ADE6A778E27812023A4304D1012B1AD09F
:105980002800FFF731FE002E31D022003100280020
:10599000FFF7ACFB002000F0A3F9184A3423D35CD6
:1059A000DB07D80F002B00D091E62100280000F083
:1059B00037F901208BE62800FFF73AFEE3E70020E5
:1059C00085E6002083E6002081E600207FE60020B7
:1059D0007DE600207BE6002079E6002077E60020C7
:1059E00075E6002073E6002071E600206FE60120D6
:1059F0006DE6C046000000007CEB0010441C002057
:105A0000DD46001084320220C8EB00101C19002073
:105A100030B585B000F0E9FC002808D105B030BDF4
:105A200001AC2078FFF75CFB22795D4B9A705D4BEF
:105A30001C68210014316269EFF3108072B613689C
:105A4000002BFCD0BFF35F8F486001A9200001F05C
:105A50004DF86269A369BFF35F8F0021116083F382
:105A600010880028DAD001AB5B78082BDFD89B00C8
:105A70004D4AD3589F4601AB1878FFF731FB4B4B8B
:105A8000002BD4D000E000BFD1E7454B1A780124A9
:105A900001210A431A703322995CA1439954995CFD
:105AA0000420814399540132995CA1439954995C33
:105AB0008143995401AB187802A9FFF7EBFD002848
:105AC000B5D101AC20780021FFF754FA207880216D
:105AD000FFF750FAABE701AB19797F220A40CC09F6
